:1000000000308A00DF2A0000FF00030E8301A100F8
:100010000A08A0008A010408A2007708A300780853
:10002000A4007908A5007A08A6007B08A70083131E
:1000300083128B1E1D280B1936288C308400801EDD
:1000400023288C1A3928220884002308F700240862
:10005000F8002508F9002608FA002708FB00200808
:100060008A00210E8300FF0E7F0E09008A110A12FA
:100070005F288A110A123C288C1E5B282930280729
:10008000840083138C1E42281A0880002930280718
:1000900084008313000F4F28FF30A900A801A80A8D
:1000A0002808043C031D5A28A801290F5A280130AA
:1000B000AD00AE003C288C128A110A1223283C3075
:1000C0008100CB08031D6C284A08083C031C6C28DF
:1000D000CA0A0319CB0A8328AE08031D8028831699
:1000E000851083128510831605118312051183165E
:1000F000851183128511831685128312851281283A
:10010000AE01CB01CA010B118A110A1223284D300E
:1001100084008313000803199A280630F800F701B9
:10012000F70B9028F80B8F287B30F700F70B9628F9
:10013000800B8D288A110A12592B4D08FE3C031C96
:10014000A3287F30CD024D08F80000348E30F70030
:100150005608F8005508F900FA01D61FB428F80926
:10016000F909F90A0319F80AF808031DC1287908E2
:10017000F800F9010830F702F808031DC128F7015B
:10018000CA280310F81BC828F90DF80DF703C12879
:10019000D61FF813003480308318DA06DF01E0013F
:1001A0005608DE005A08DE0655080319BB29DD0093
:1001B000F70059080319C429DD0203196029031C3B
:1001C0001E295A08E300E3175B08E2005C08E1001F
:1001D000E0010310E30CE20CE10CE00CDD0BE8287D
:1001E000DE1FF5285F14D8295F105D105F165830A8
:1001F00084008313ED295F12DE1B08295D1C13297F
:10020000E30CE20CE10CE00CF70A0319D3291329E3
:10021000E31B16290310E00DE10DE20DE30DF703DA
:100220000319D32908295F1780295F135608DE00B8
:10023000DE1F1C29E317CC29E313CC295908DD0064
:10024000F7005508DD025608E300E3175708E200FF
:100250005808E100E0010310E30CE20CE10CE00CB3
:10026000DD0B2A29DE1F3729DF14D829DF105D10A6
:10027000DF165C3084008313ED29DF12DE1B4A2970
:100280005D1C5529E30CE20CE10CE00CF70A0319A4
:10029000D3295529E31B58290310E00DE10DE20D88
:1002A000E30DF7030319D3294A29DF178029DF1348
:1002B0005A08DE00DE1F5E29E317CC29E313CC29A0
:1002C0005A08E300E3175B08E2005C08E100DE1F68
:1002D0006D29E3135F15D8295F11E0015D105830D7
:1002E00084008313ED29DE1B96295608DE005D1C71
:1002F0008029E30CE20CE10CE00CF70A0319D32986
:10030000E01F9129E10A031D9129E20A031D9129A9
:10031000E30A031D9129E30CE20CE10CF70A03192F
:10032000D3295F1B1529DF1B5729B5298030E30628
:10033000E31F9E29D8295A08DE00AB295608DE00A3
:10034000E308031DAB29E208031DAB29E108031DE7
:10035000AB29F701CC29E31BB5290310E00DE10D12
:10036000E20DE30DF70BAB29D329DE1FB929E31703
:10037000CC29E313CC295908F7005A08E3005B089D
:10038000E2005C08E100CC295508F7005608E300BC
:100390005708E2005808E1006308F8006208F90015
:1003A0006108FA000B2AF701F801F901FA010B2A9A
:1003B000E001E109E209E309E009E00A031DE62999
:1003C000E10A031DE629E20A0319E30A5F18F4288B
:1003D000DF1836295F196C299B290008E107031CE7
:1003E000F729E20A031DF729E30A03195D148403C0
:1003F0000008E207031CFF29E30A03195D148403C4
:100400000008801F803AE30703185D145F1AFB2879
:10041000DF1A3D29732900345208D9005608D9063D
:10042000D91F172A03110310D21B03144A2A52089A
:10043000D9005508DA005108DA020319252AD91F14
:100440004A2A0308013A83004A2A5608DA00520869
:10045000DA020319312AD91F4A2A0308013A830014
:100460004A2A5708DA005308DA0203193D2AD91F2D
:100470004A2A0308013A83004A2A5808DA00540835
:10048000DA020319492AD91F4A2A0308013A8300CC
:100490004A2A0310003451080319BB2AD900550811
:1004A0000319BB2AD90703185C2A7F30D902031C21
:1004B000BB2A0319BB2A602A8130D9070318BB2A3B
:1004C0005908F700F801F901FA015208DD00DD17BB
:1004D0005308DC005408DB001830D900DA015B1C3B
:1004E000892A5808FA07031C7B2AF90A031D7B2A6C
:1004F000F80A0319DA175708F907031C822AF80AC1
:100500000319DA175608D300D3175308F80703184E
:10051000DA17DA0DF80CF90CFA0CDD0CDC0CDB0C3C
:100520000310D90B6E2A0130F7070318BB2AF81BFA
:10053000A02ADD0DFA0DF90DF80DF7030319BB2AFA
:10054000DD1FB12AFA0A031DB12AF90A031DB12AD7
:10055000F80A031DB12AF80CF90CFA0CF70A031972
:10056000BB2A5208DA005608DA06DA1FB92AF81749
:10057000BF2AF813BF2AF701F801F901FA01003484
:100580008E30F7005108F7025208F9005308F800BE
:10059000F917F7080319D72A0310F908031DD32AFE
:1005A000F8080319D72AF90CF80CF70BCC2AD21F3C
:1005B000DE2AF809F909F80A0319F90A0034840156
:1005C00083131F308305813083169900A63098006D
:1005D00090308312980083161F149F141F159F11CB
:1005E00007309C008312A801AD01AE01AF010130BC
:1005F000B500B600B701B801B901BA01BB01BC0131
:10060000BD01BE01BF01C001C101C201C301C401DE
:10061000C501C601C701C801C901CA01CB01FF302C
:10062000CC004C124C0883168700831207128316E5
:100630008C1283128B120B138B138B1B1C2B8316A8
:1006400081178510831285108316051183120511F9
:1006500083168511831285118316851283128512E4
:100660000030F80006389200F030831692008312B2
:10067000CC104C0883168700831287100C309D0025
:100680004C114C0883168700831207110C30970019
:1006900095019B0183160108C03907388100831238
:1006A0008B1683168C16C03083128B046430CD00F9
:1006B00087284C124C0883168700831207163C309B
:1006C00081002D0BCE2DCC124C08831687002030D4
:1006D000831287062A08CD009D207808B7002B08D2
:1006E000CD009D207808B8002C08CD009D2078080A
:1006F000B900D6013708D500D51BD603A620770848
:10070000CD007808CE007908CF007A08D000D60155
:100710003808D500D51BD603A62083145008D8006E
:100720004F08D7004E08D6004D08D5007A08DC00E7
:100730007908DB007808DA007708D900CB20770841
:10074000D1007808D2007908D3007A08D400D60105
:100750003908D500D51BD603A62083145408D80029
:100760005308D7005208D6005108D5007A08DC009B
:100770007908DB007808DA007708D900CB207A08FE
:10078000BD007908BC007808BB007708BA00D60124
:100790003708D500D51BD603A6207708CD007808EA
:1007A000CE007908CF007A08D000D6013808D500ED
:1007B000D51BD603A62083105008D8004F08D700B9
:1007C0004E08D6004D08D5007A08DC007908DB0019
:1007D0007808DA007708D900CB207708D1007808AC
:1007E000D2007908D3007A08D400D6013908D500A0
:1007F000D51BD603A62083105408D8005308D70071
:100800005208D6005108D5007A08DC007908DB00D0
:100810007808DA007708D900CB207A08C100790877
:10082000C0007808BF007708BE00D6013708D500A1
:10083000D51BD603A6207708CD007808CE0079080E
:10084000CF007A08D000D6013808D500D51BD603D2
:10085000A62083105008D8004F08D7004E08D600B5
:100860004D08D5007A08DC007908DB007808DA004A
:100870007708D900CB207708D1007808D200790812
:10088000D3007A08D400D6013908D500D51BD60389
:10089000A62083145408D8005308D7005208D60065
:1008A0005108D5007A08DC007908DB007808DA0006
:1008B0007708D900CB207A08C5007908C4007808E9
:1008C000C3007708C200D6013708D500D51BD60370
:1008D000A6207708CD007808CE007908CF007A08E6
:1008E000D000D6013808D500D51BD603A620831426
:1008F0005008D8004F08D7004E08D6004D08D50044
:100900007A08DC007908DB007808DA007708D9007B
:10091000CB207708D1007808D2007908D3007A0874
:10092000D400D6013908D500D51BD603A6208310E4
:100930005408D8005308D7005208D6005108D500F3
:100940007A08DC007908DB007808DA007708D9003B
:10095000CB207A08C9007908C8007808C700770852
:10096000C60037087C3C031DCE2C38087C3C031D98
:10097000CE2C39087C3C031DCE2C831685108312A7
:1009800085108316051183120511831685118312B4
:1009900085118316851283128512CD2D37087B3C75
:1009A000031DEB2C38087B3C031DEB2C39087B3CEA
:1009B000031DEB2C831685108312851083160511F9
:1009C00083120511831685118312851183168512F2
:1009D00083128512CD2D4908D4004808D30047085A
:1009E000D2004608D100D801D701D601D5010C228A
:1009F000031C032D8316851183128515831685121A
:100A0000831285120B2D8316851283128516831689
:100A10008511831285114608F7004708F800480839
:100A2000F9004908FA00F8134608CD007808CE000E
:100A30004808CF004908D000D401D3017E30D2004D
:100A40008530D1004908D8004808D7007808D6007A
:100A50004608D5000C22031C332DC901C8017E3085
:100A6000C7008530C6004608F7004708F800480868
:100A7000F9004908FA00F8134608CD007808CE00BE
:100A80004808CF004908D000D4004808D3007808AF
:100A9000D2004608D100D801D701D6018030D50058
:100AA0004B227A08D4007908D3007808D20077085E
:100AB000D100C022780895004108D4004008D30036
:100AC0003F08D2003E08D100D801D701D601D50198
:100AD0000C22031C742D8316051183120515831631
:100AE0008510831285107C2D831685108312851442
:100AF00083160511831205113E08F7003F08F80020
:100B00004008F9004108FA00F8133E08CD007808C3
:100B1000CE004008CF004108D000D401D3017E3080
:100B2000D2008530D1004108D8004008D7007808AD
:100B3000D6003E08D5000C22031CA42DC101C00123
:100B40007E30BF008530BE003E08F7003F08F80049
:100B50004008F9004108FA00F8133E08CD00780873
:100B6000CE004008CF004108D000D4004008D30098
:100B70007808D2003E08D100D801D701D6018030D4
:100B8000D5004B227A08D4007908D3007808D20027
:100B90007708D100C02278089B00AD01612B63006B
:02400E00323F3F
:00000001FF
;PIC16F877A
