:1000000000308A00E72A0000FF00030E8301A100F0
:100010000A08A0008A010408A2007708A300780853
:10002000A4007908A5007A08A6007B08A70083131E
:1000300083128B1E1D280B1936288C308400801EDD
:1000400023288C1A3928220884002308F700240862
:10005000F8002508F9002608FA002708FB00200808
:100060008A00210E8300FF0E7F0E09008A110A12FA
:100070005F288A110A123C288C1E5B282930280729
:10008000840083138C1E42281A0880002930280718
:1000900084008313000F4F28FF30A900A801A80A8D
:1000A0002808043C031D5A28A801290F5A280130AA
:1000B000AD00AE003C288C128A110A1223283C3075
:1000C0008100C308031D6C284208083C031C6C28EF
:1000D000C20A0319C30A8B28AE08031D8828831699
:1000E000851083128510831605118312051183165E
:1000F000851183128511831685128312851283164A
:100100008910831289108316091183120911892815
:10011000AE01C301C2010B118A110A122328463015
:100120008400831300080319A2280630F800F701A1
:10013000F70B9828F80B97287B30F700F70B9E28D1
:10014000800B95288A110A125B2B4608FE3C031C83
:10015000AB287F30C6024608F80000348E30F70026
:100160004F08F8004E08F900FA01CF1FBC28F80923
:10017000F909F90A0319F80AF808031DC9287908CA
:10018000F800F9010830F702F808031DC928F70143
:10019000D2280310F81BD028F90DF80DF703C92851
:1001A000CF1FF813003480308318D306D801D9014B
:1001B0004F08D7005308D7064E080319C329D600A5
:1001C000F70052080319CC29D60203196829031C29
:1001D00026295308DC00DC175408DB005508DA0038
:1001E000D9010310DC0CDB0CDA0CD90CD60BF0288F
:1001F000D71FFD285814E0295810561058165130B2
:1002000084008313F5295812D71B1029561C1B296B
:10021000DC0CDB0CDA0CD90CF70A0319DB291B29DF
:10022000DC1B1E290310D90DDA0DDB0DDC0DF703E5
:100230000319DB2910295817882958134F08D700AC
:10024000D71F2429DC17D429DC13D4295208D6005F
:10025000F7004E08D6024F08DC00DC175008DB0020
:100260005108DA00D9010310DC0CDB0CDA0CD90CD4
:10027000D60B3229D71F3F29D814E029D8105610A1
:10028000D816553084008313F529D812D71B52296C
:10029000561C5D29DC0CDB0CDA0CD90CF70A0319AF
:1002A000DB295D29DC1B60290310D90DDA0DDB0D7C
:1002B000DC0DF7030319DB295229D8178829D81335
:1002C0005308D700D71F6629DC17D429DC13D4299B
:1002D0005308DC00DC175408DB005508DA00D71F90
:1002E0007529DC135815E0295811D90156105130E1
:1002F00084008313F529D71B9E294F08D700561C6D
:100300008829DC0CDB0CDA0CD90CF70A0319DB2981
:10031000D91F9929DA0A031D9929DB0A031D992996
:10032000DC0A031D9929DC0CDB0CDA0CF70A031933
:10033000DB29581B1D29D81B5F29BD298030DC060D
:10034000DC1FA629E0295308D700B3294F08D7009E
:10035000DC08031DB329DB08031DB329DA08031DDC
:10036000B329F701D429DC1BBD290310D90DDA0DFF
:10037000DB0DDC0DF70BB329DB29D71FC129DC17F7
:10038000D429DC13D4295208F7005308DC005408A0
:10039000DB005508DA00D4294E08F7004F08DC00CE
:1003A0005008DB005108DA005C08F8005B08F9002F
:1003B0005A08FA00132AF701F801F901FA01132A81
:1003C000D901DA09DB09DC09D909D90A031DEE29AB
:1003D000DA0A031DEE29DB0A0319DC0A5818FC2887
:1003E000D8183E2958197429A3290008DA07031CD4
:1003F000FF29DB0A031DFF29DC0A031956148403B5
:100400000008DB07031C072ADC0A031956148403BF
:100410000008801F803ADC0703185614581A032975
:10042000D81A45297B2900344B08D2004F08D20640
:10043000D21F1F2A03110310CB1B0314522A4B088F
:10044000D2004E08D3004A08D30203192D2AD21F26
:10045000522A0308013A8300522A4F08D3004B085E
:10046000D3020319392AD21F522A0308013A830002
:10047000522A5008D3004C08D3020319452AD21F30
:10048000522A0308013A8300522A5108D3004D082A
:10049000D3020319512AD21F522A0308013A8300BA
:1004A000522A031000344A080319C32AD2004E0806
:1004B0000319C32AD2070318642A7F30D202031C0F
:1004C000C32A0319C32A682A8130D2070318C32A12
:1004D0005208F700F801F901FA014B08D600D617C7
:1004E0004C08D5004D08D4001830D200D301541C5C
:1004F000912A5108FA07031C832AF90A031D832A4B
:10050000F80A0319D3175008F907031C8A2AF80AB6
:100510000319D3174F08CC00CC174C08F807031861
:10052000D317D30DF80CF90CFA0CD60CD50CD40C4F
:100530000310D20B762A0130F7070318C32AF81BE1
:10054000A82AD60DFA0DF90DF80DF7030319C32AE1
:10055000D61FB92AFA0A031DB92AF90A031DB92AB6
:10056000F80A031DB92AF80CF90CFA0CF70A03195A
:10057000C32A4B08D3004F08D306D31FC12AF8174C
:10058000C72AF813C72AF701F801F901FA01003464
:100590008E30F7004A08F7024B08F9004C08F800C3
:1005A000F917F7080319DF2A0310F908031DDB2ADE
:1005B000F8080319DF2AF90CF80CF70BD42ACB1F23
:1005C000E62AF809F909F80A0319F90A003484013E
:1005D00083131F308305813083169900A63098005D
:1005E00090308312980083161F149F141F159F11BB
:1005F00007309C008312A801AD01AE01AF01B0012C
:10060000B101B201B301B401B501B601B701B8013E
:10061000B901BA01BB01BC01BD01BE01BF01C001EE
:10062000C101C201C3014410C410FF30C5008316CC
:100630008C1283128B120B138B138B1B1C2B8316A8
:1006400081178510831285108316051183120511F9
:1006500083168511831285118316851283128512E4
:1006600083168910831289108316091183120911C8
:100670000030F80006389200F030831692008312A2
:10068000C510450883168700831287100C309D0023
:100690004511450883168700831207110C30970017
:1006A00095019B0183160108C039073881000A3083
:1006B0008312C6008F288B1683168C16C0308312C7
:1006C0008B043C30810083168614831244108618F4
:1006D0004414831606158312C4100619C4142D0B76
:1006E0000E2EC51245088316870020308312870618
:1006F0002A08C600A5207808AF002B08C600A52050
:100700007808B0002C08C600A5207808B100CF01F9
:100710002F08CE00CE1BCF03AE207708C600780886
:10072000C7007908C8007A08C900CF013008CE0098
:10073000CE1BCF03AE2083144908D1004808D00057
:100740004708CF004608CE007A08D5007908D400C3
:100750007808D3007708D200D3207708CA00780839
:10076000CB007908CC007A08CD00CF013108CE004B
:10077000CE1BCF03AE2083144D08D1004C08D0000F
:100780004B08CF004A08CE007A08D5007908D4007B
:100790007808D3007708D200D3207A08B50079080A
:1007A000B4007808B3007708B200CF012F08CE005C
:1007B000CE1BCF03AE207708C6007808C7007908A3
:1007C000C8007A08C900CF013008CE00CE1BCF0385
:1007D000AE2083104908D1004808D0004708CF0058
:1007E0004608CE007A08D5007908D4007808D300EE
:1007F0007708D200D3207708CA007808CB007908A0
:10080000CC007A08CD00CF013108CE00CE1BCF033B
:10081000AE2083104D08D1004C08D0004B08CF000B
:100820004A08CE007A08D5007908D4007808D300A9
:100830007708D200D3207A08B9007908B800780880
:10084000B7007708B600CF012F08CE00CE1BCF032C
:10085000AE207708C6007808C7007908C8007A0873
:10086000C900CF013008CE00CE1BCF03AE208310CD
:100870004908D1004808D0004708CF004608CE00FC
:100880007A08D5007908D4007808D3007708D20018
:10089000D3207708CA007808CB007908CC007A0802
:1008A000CD00CF013108CE00CE1BCF03AE20831484
:1008B0004D08D1004C08D0004B08CF004A08CE00AC
:1008C0007A08D5007908D4007808D3007708D200D8
:1008D000D3207A08BD007908BC007808BB007708EF
:1008E000BA00CF012F08CE00CE1BCF03AE20770871
:1008F000C6007808C7007908C8007A08C900CF0187
:100900003008CE00CE1BCF03AE2083144908D1009F
:100910004808D0004708CF004608CE007A08D50026
:100920007908D4007808D3007708D200D32077085C
:10093000CA007808CB007908CC007A08CD00CF0136
:100940003108CE00CE1BCF03AE2083104D08D1005E
:100950004C08D0004B08CF004A08CE007A08D500DA
:100960007908D4007808D3007708D200D3207A0819
:10097000C1007908C0007808BF007708BE002F08C2
:100980007C3C031DF12C30087C3C031DF12C31080C
:100990007C3C031DF12C8316851083128510831671
:1009A0000511831205118316851183128511831693
:1009B000851283128512C41CE82C9630950083168C
:1009C0008910831289148316091183120911F02CDE
:1009D0008316891083128910831609118312091155
:1009E0000D2E2F087B3C031D232D30087B3C031D5F
:1009F000232D31087B3C031D232D83168510831284
:100A00008510831605118312051183168511831233
:100A100085118316851283128512441C1A2D963077
:100A20009500831609118312091583168910831204
:100A30008910222D831689108312891083160911BB
:100A4000831209110D2E83168910831289108316C3
:100A50000911831209113508CD003408CC00330880
:100A6000CB003208CA00D101D001CF01CE0114223F
:100A7000031C432D83168512831285168316851158
:100A8000831285114B2D83168511831285158316CC
:100A90008512831285123208F7003308F8003408F3
:100AA000F9003508FA00F8133208C6007808C700C4
:100AB0003408C8003508C900CD01CC017E30CB0018
:100AC0008530CA003508D1003408D0007808CF003E
:100AD0003208CE001422031C732DB501B4017E3000
:100AE000B3008530B2003208F7003308F80034084C
:100AF000F9003508FA00F8133208C6007808C70074
:100B00003408C8003508C900CD003408CC00780886
:100B1000CB003208CA00D101D001CF018030CE0015
:100B200053227A08CD007908CC007808CB007708EA
:100B3000CA00C822780895003D08CD003C08CC00CA
:100B40003B08CB003A08CA00D101D001CF01CE0149
:100B50001422031CB42D831685108312851483166A
:100B6000051183120511BC2D83160511831205157D
:100B700083168510831285103A08F7003B08F800A9
:100B80003C08F9003D08FA00F8133A08C600780856
:100B9000C7003C08C8003D08C900CD01CC017E302B
:100BA000CB008530CA003D08D1003C08D000780851
:100BB000CF003A08CE001422031CE42DBD01BC0175
:100BC0007E30BB008530BA003A08F7003B08F800D9
:100BD0003C08F9003D08FA00F8133A08C600780806
:100BE000C7003C08C8003D08C900CD003C08CC0047
:100BF0007808CB003A08CA00D101D001CF0180307B
:100C0000CE0053227A08CD007908CC007808CB00BA
:100C10007708CA00C82278089B00AD01632B6300E7
:02400E00323F3F
:00000001FF
;PIC16F877A
