:1000000008308A0000280000FF00030E8301A100D1
:100010000A08A0008A010408A2007708A300780853
:10002000A4007908A5007A08A6007B08A70083131E
:1000300083128B1E1D280B193E288B1D21280B189F
:1000400041280B1E25288B1844288C308400801EE4
:100050002B288C1A4728220884002308F70024083C
:10006000F8002508F9002608FA002708FB002008F8
:100070008A00210E8300FF0E7F0E09008A110A12EA
:1000800095288A110A1203298A110A12FF288A1157
:100090000A124A288C1E6A282B302A0784008313F0
:1000A0008C1E50281A0880002B302A0784008313E6
:1000B000000F5D28FF30AB00AA01AA0A2A08043C01
:1000C000031D6928AA012B0F69280130AF00B00079
:1000D000B1014A288C128A110A122B288E30F7009F
:1000E00083163908F8003808F900FA01B91F7D288D
:1000F000F809F909F90A0319F80AF808031D8A280A
:100100007908F800F9010830F702F808031D8A2879
:10011000F70193280310F81B9128F90DF80DF70348
:100120008A28B91FF813831200343C308100D208AA
:10013000031DA2285108083C031CA228D10A031958
:10014000D20AFB28B008031DAB28B108031DAB2859
:100150000130B100AC28B001ED126D0883168700A4
:1001600020308312870654088316B900831253087F
:100170008316B80083126E207A08DE007908DD004D
:100180007808DC007708DB0056088316B900831274
:1001900055088316B80083126E207A08E2007908A9
:1001A000E1007808E0007708DF0058088316B900FE
:1001B000831257088316B80083126E207A08E6006F
:1001C0007908E5007808E4007708E3005A08831608
:1001D000B900831259088316B80083126E207A087A
:1001E000EA007908E9007808E8007708E700D2011A
:1001F000D1010130EB000B118A110A122B288B1050
:100200008A110A122B288316061683126C10061AFE
:100210006C14831686168312EC10861AEC1483165F
:10022000061783126C11061B6C1583168617831232
:10023000EC11861BEC15F7016C1A77146C08770625
:100240000139031932296C1C3229831606148312D2
:10025000061C2E29D30A0319D40A3229530803197C
:10026000D403D303F701EC1AF7146C0877060239AC
:1002700003194929EC1C4929831686148312861C0C
:100280004529D50A0319D60A492955080319D60361
:10029000D503F7016C1B77156C0877060439031931
:1002A00060296C1D6029831606158312061D5C29C2
:1002B000D70A0319D80A602957080319D803D703A6
:1002C000F701EC1BF7156C08770608390319772935
:1002D000EC1D7729831686158312861D7329D90A8A
:1002E0000319DA0A772959080319DA03D9036C12BA
:1002F0006C186C16EC12EC18EC166C136C196C176D
:10030000EC13EC19EC170B108A110A122B286E3023
:1003100084008313000803199A290630F800F701B6
:10032000F70B9029F80B8F297B30F700F70B9629F4
:10033000800B8D2900346E08FE3C031CA1297F3000
:10034000EE026E08F80000348030831CAA29831660
:10035000A50683128316AA01AB012108A90025086E
:10036000A90620080319982AA800F70024080319F1
:10037000A12AA80203193D2A031CFB292508AE0067
:10038000AE172608AD002708AC00AB010310AE0C79
:10039000AD0CAC0CAB0CA80BC529A91FD2292A1493
:1003A000B52A2A1028102A16A33084008313CA2ADB
:1003B0002A12A91BE529281CF029AE0CAD0CAC0CA7
:1003C000AB0CF70A0319B02AF029AE1BF32903106E
:1003D000AB0DAC0DAD0DAE0DF7030319B02AE52939
:1003E0002A175D2A2A132108A900A91FF929AE1787
:1003F000A92AAE13A92A2408A800F7002008A802F9
:100400002108AE00AE172208AD002308AC00AB01F6
:100410000310AE0CAD0CAC0CAB0CA80B072AA91F3B
:10042000142AAA14B52AAA102810AA16A7308400E4
:100430008313CA2AAA12A91B272A281C322AAE0C07
:10044000AD0CAC0CAB0CF70A0319B02A322AAE1B68
:10045000352A0310AB0DAC0DAD0DAE0DF70303192E
:10046000B02A272AAA175D2AAA132508A900A91FBE
:100470003B2AAE17A92AAE13A92A2508AE00AE174B
:100480002608AD002708AC00A91F4A2AAE132A157A
:10049000B52A2A11AB012810A33084008313CA2A7D
:1004A000A91B732A2108A900281C5D2AAE0CAD0CDB
:1004B000AC0CAB0CF70A0319B02AAB1F6E2AAC0ABE
:1004C000031D6E2AAD0A031D6E2AAE0A031D6E2A95
:1004D000AE0CAD0CAC0CF70A0319B02A2A1BF2299A
:1004E000AA1B342A922A8030AE06AE1F7B2AB52A78
:1004F0002508A900882A2108A900AE08031D882A1A
:10050000AD08031D882AAC08031D882AF701A92A13
:10051000AE1B922A0310AB0DAC0DAD0DAE0DF70B5B
:10052000882AB02AA91F962AAE17A92AAE13A92A8B
:100530002408F7002508AE002608AD002708AC0007
:10054000A92A2008F7002108AE002208AD002308E0
:10055000AC002E08F8002D08F9002C08FA00E82A53
:10056000F701F801F901FA01E82AAB01AC09AD097C
:10057000AE09AB09AB0A031DC32AAC0A031DC32A8B
:10058000AD0A0319AE0A2A18D129AA18132A2A1962
:10059000492A782A0008AC07031CD42AAD0A031D97
:1005A000D42AAE0A0319281484030008AD07031CDB
:1005B000DC2AAE0A0319281484030008801F803A3D
:1005C000AE07031828142A1AD829AA1A1A2A502A58
:1005D000831200347308FC0083162108FC06FC1FFC
:1005E000F62A03110310F31B0314292B7308FC00D4
:1005F0002008FD007208FD020319042BFC1F292BA3
:100600000308013A8300292B2108FD007308FD022D
:100610000319102BFC1F292B0308013A8300292BF7
:100620002208FD007408FD0203191C2BFC1F292B56
:100630000308013A8300292B2308FD007508FD02F9
:100640000319282BFC1F292B0308013A8300292BAF
:1006500003108312003472080319AA2B8316A40016
:100660002008031D352B8312AA2BA4070318432B44
:100670007F30A40203183E2B8312AA2B031D422BAA
:100680008312AA2B492B8130A407031C492B831208
:10069000AA2B2408F700F801F901FA017308A80051
:1006A000A8177408A7007508A6001830A400A501B3
:1006B000261C722B2308FA07031C642BF90A031D5E
:1006C000642BF80A0319A5172208F907031C6B2BE2
:1006D000F80A0319A5172108F400F4177408F8079D
:1006E0000318A517A50DF80CF90CFA0CA80CA70C0B
:1006F000A60C0310A40B572B0130F707031C822B09
:100700008312AA2BF81B8C2BA80DFA0DF90DF80DEE
:10071000F70B8C2B8312AA2BA81F9F2BFA0A031D01
:100720009F2BF90A031D9F2BF80A031D9F2BF80C22
:10073000F90CFA0CF70A031D9F2B8312AA2B7308DE
:10074000A5002108A506A51FA72BF817AF2BF813A6
:10075000AF2B8312F701F801F901FA018316831216
:1007600000348E30F7007208F7027308F90074083D
:10077000F800F917F7080319C82B0310F908031D2F
:10078000C42BF8080319C82BF90CF80CF70BBD2B78
:10079000F31FCF2BF809F909F80A0319F90A0034F5
:10100000840183131F308305813083169900A63035
:10101000980090308312980083161F149F141F1598
:101020009F1107309C0001308312A900AA01AF0173
:10103000B001B101B201B800B900BA01BB01BC01F5
:10104000BD01BE01BF01C001C101C201C301C40194
:10105000C501C601C701C801C901CA01CB01CC0144
:10106000CD01CE01CF01D001D101D201D301D401F4
:10107000D501D601D701D801D901DA01EB016C10F5
:10108000EC106C11EC116C12EC126C13EC13FF30C1
:10109000ED006D126D08831687008312071264300D
:1010A000EE008A1187218A1583168C1283120B1386
:1010B0008B138B1B58280B1203178B1503138B16DE
:1010C00083168117851083128510831605118312EC
:1010D00005118316851183128511831685128312DB
:1010E00085128316891083128910831609118312C1
:1010F00009110030F80006389200F0308316920093
:101100008312ED106D0883168700831287100C3050
:101110009D006D116D0883168700831207110C3036
:10112000970095019B0183160108C039073881009B
:101130003C30831281000A30EE008A1187218A1523
:1011400083168C16C03083128B046430EE008A1133
:1011500087218A156D126D08831687008312071682
:101160006B0BB328EB012F0B2C2D2C08EE008A11F2
:101170009B218A157808BA002D08EE008A119B2160
:101180008A157808BB002E08EE008A119B218A156B
:101190007808BC00A8018B1BA8178B138316B90114
:1011A00083123A088316B800B81BB9038A11831258
:1011B0006E208A15A81B8B177708EE007808EF00C1
:1011C0007908F0007A08F100A8018B1BA8178B138F
:1011D0008316B90183123B088316B800B81BB90304
:1011E0008A1183126E208A15A81B8B17831471082D
:1011F0008316A3007008A20083126F088316A10053
:1012000083126E088316A0007A08A7007908A6004A
:101210007808A5007708A4008A118312A4218A15F2
:101220007708F2007808F3007908F4007A08F500EE
:10123000A8018B1BA8178B138316B90183123C08D6
:101240008316B800B81BB9038A1183126E208A1561
:10125000A81B8B17831475088316A3007408A200BB
:101260007308A1007208A0007A08A7007908A600F8
:101270007808A5007708A4008A118312A4218A1592
:101280007A08C0007908BF007808BE007708BD0062
:10129000A8018B1BA8178B138316B90183123A0878
:1012A0008316B800B81BB9038A1183126E208A1501
:1012B000A81B8B177708EE007808EF007908F0007C
:1012C0007A08F100A8018B1BA8178B138316B901AC
:1012D00083123B088316B800B81BB9038A11831226
:1012E0006E208A15A81B8B17831071088316A30024
:1012F0007008A20083126F088316A10083126E0883
:101300008316A0007A08A7007908A6007808A5002F
:101310007708A4008A118312A4218A157708F200A5
:101320007808F3007908F4007A08F500A8018B1B0F
:10133000A8178B138316B90183123C088316B800D3
:10134000B81BB9038A1183126E208A15A81B8B174C
:10135000831075088316A3007408A2007308A10007
:101360007208A0007A08A7007908A6007808A500EE
:101370007708A4008A118312A4218A157A08C40070
:101380007908C3007808C2007708C100A8018B1B48
:10139000A8178B138316B90183123A088316B80075
:1013A000B81BB9038A1183126E208A15A81B8B17EC
:1013B0007708EE007808EF007908F0007A08F1006D
:1013C000A8018B1BA8178B138316B90183123B0846
:1013D0008316B800B81BB9038A1183126E208A15D0
:1013E000A81B8B17831071088316A3007008A20036
:1013F00083126F088316A10083126E088316A00063
:101400007A08A7007908A6007808A5007708A40044
:101410008A118312A4218A157708F2007808F30054
:101420007908F4007A08F500A8018B1BA8178B1324
:101430008316B90183123C088316B800B81BB903A0
:101440008A1183126E208A15A81B8B1783147508C6
:101450008316A3007408A2007308A1007208A000FC
:101460007A08A7007908A6007808A5007708A400E4
:101470008A118312A4218A157A08C8007908C70046
:101480007808C6007708C500A8018B1BA8178B1326
:101490008316B90183123A088316B800B81BB90342
:1014A0008A1183126E208A15A81B8B177708EE000D
:1014B0007808EF007908F0007A08F100A8018B1B8A
:1014C000A8178B138316B90183123B088316B80043
:1014D000B81BB9038A1183126E208A15A81B8B17BB
:1014E000831471088316A3007008A20083126F088A
:1014F0008316A10083126E088316A0007A08A70045
:101500007908A6007808A5007708A4008A1183123C
:10151000A4218A157708F2007808F3007908F4000E
:101520007A08F500A8018B1BA8178B138316B90145
:1015300083123C088316B800B81BB9038A118312C2
:101540006E208A15A81B8B17831075088316A300BD
:101550007408A2007308A1007208A0007A08A7000E
:101560007908A6007808A5007708A4008A118312DC
:10157000A4218A157A08CC007908CB007808CA0023
:101580007708C9003A087C3C031DE92A3B087C3CEB
:10159000031DE92A3C087C3C031DE92A83168510BB
:1015A0008312851083160511831205118316851188
:1015B00083128511831685128312851296309B0043
:1015C0008316891083128914831609118312091155
:1015D0002B2D3A087B3C031D102B3B087B3C031D45
:1015E000102B3C087B3C031D102B831685108312A7
:1015F0008510831605118312051183168511831238
:101600008511831685128312851296309B008316EE
:1016100089108312891083160911831209152B2D45
:1016200083168910831289108316091183120911F8
:10163000290B232C4C08F5004B08F4004A08F30052
:101640004908F2008316A301A201A101A0018A1199
:101650008312EA228A15031C362B83168510831207
:10166000851483160511831205113E2B831605116F
:101670008312051583168510831285104908F7001B
:101680004A08F8004B08F9004C08FA00F81349081A
:10169000EE007808EF004B08F0004C08F100F5016F
:1016A000F4017E30F3008530F20071088316A30048
:1016B0007008A20083126F088316A10083126E08BF
:1016C0008316A0008A118312EA228A15031C6E2B4E
:1016D000CC01CB017E30CA008530C9004908F70033
:1016E0004A08F8004B08F9004C08FA00F8134908BA
:1016F000EE007808EF004B08F0004C08F100F50010
:101700007008F4006F08F3006E08F2008316A3015E
:10171000A201A1018030A0008A1183122B238A1517
:101720007A08F5007908F4007808F3007708F200E9
:101730008A11B1238A157808F20095004408F50053
:101740004308F4004208F3004108F2008316A301A5
:10175000A201A101A0018A118312EA228A15031CA9
:10176000BA2B831685128312851683168511831270
:101770008511C22B83168511831285158316851258
:10178000831285124108F7004208F8004308F90067
:101790004408FA00F8134108EE007808EF00430807
:1017A000F0004408F100F501F4017E30F3008530CB
:1017B000F20071088316A3007008A20083126F085C
:1017C0008316A10083126E088316A0008A1183126B
:1017D000EA228A15031CF22BC401C3017E30C20029
:1017E0008530C1004108F7004208F8004308F900BD
:1017F0004408FA00F8134108EE007808EF004308A7
:10180000F0004408F100F5007008F4006F08F300E0
:101810006E08F2008316A301A201A1018030A0008E
:101820008A1183122B238A157A08F5007908F400AF
:101830007808F3007708F2008A11B1238A15780836
:10184000F2009B002B2D4808F5004708F4004608DD
:10185000F3004508F2008316A301A201A101A00133
:101860008A118312EA228A15031C3F2C83168510E5
:10187000831285148316051183120511472C8316D4
:1018800005118312051583168510831285104508EE
:10189000F7004608F8004708F9004808FA00F8136E
:1018A0004508EE007808EF004708F0004808F1000E
:1018B000F501F4017E30F3008530F20071088316E3
:1018C000A3007008A20083126F088316A100831280
:1018D0006E088316A0008A118312EA228A15031C5F
:1018E000772CC801C7017E30C6008530C500450889
:1018F000F7004608F8004708F9004808FA00F8130E
:101900004508EE007808EF004708F0004808F100AD
:10191000F5007008F4006F08F3006E08F2008316FB
:10192000A301A201A1018030A0008A1183122B2300
:101930008A157A08F5007908F4007808F30077082A
:10194000F2008A11B1238A157808F2009500400848
:10195000F5003F08F4003E08F3003D08F20083164E
:10196000A301A201A101A0018A118312EA228A1512
:10197000031CC32C831685128312851683168511CA
:1019800083128511CB2C831685118312851583163E
:101990008512831285123D08F7003E08F8003F08C3
:1019A000F9004008FA00F8133D08EE007808EF004F
:1019B0003F08F0004008F100F501F4017E30F3002B
:1019C0008530F20071088316A3007008A20083120C
:1019D0006F088316A10083126E088316A0008A1177
:1019E0008312EA228A15031CFB2CC001BF017E3042
:1019F000BE008530BD003D08F7003E08F8003F08F6
:101A0000F9004008FA00F8133D08EE007808EF00EE
:101A10003F08F0004008F100F5007008F4006F087E
:101A2000F3006E08F2008316A301A201A101803029
:101A3000A0008A1183122B238A157A08F5007908F1
:101A4000F4007808F3007708F2008A11B1238A15B0
:0C1A50007808F2009B00AF01B028630092
:02400E00323F3F
:00000001FF
;PIC16F877A
