:1000000008308A0000280000FF00030E8301A100D1
:100010000A08A0008A010408A2007708A300780853
:10002000A4007908A5007A08A6007B08A70083131E
:1000300083128B1E1D280B193E288B1D21280B189F
:1000400041280B1E25288B1844288C308400801EE4
:100050002B288C1A4728220884002308F70024083C
:10006000F8002508F9002608FA002708FB002008F8
:100070008A00210E8300FF0E7F0E09008A110A12EA
:1000800093298A110A12292A8A110A12252A8A1109
:100090000A128E280A108A100A11820728340C349A
:1000A000013406340A108A100A11820720342034E1
:1000B00064346534733463346F346E34653463345C
:1000C0007434613464346F342034203400340A10C2
:1000D0008A100A1182070C3420344D344F344E34C8
:1000E00054344134433441345234473441342D3450
:1000F00042344F34543420340A34203420346434AD
:100100006534733463346F346E34653463347434FB
:10011000613464346F342034203400348C1EAE28B3
:100120002B302A07840083138C1E94281A08800021
:100130002B302A0784008313000FA128FF30AB0067
:10014000AA01AA0A2A08043C031DAD28AA012B0F04
:10015000AD280130AF00B000B1018E288C128A1199
:100160000A122B28F030831688008312081500002D
:10017000081400000808080E0F398316C100831206
:10018000081000000814C428C52800000808080E3C
:100190000F398316C00083120810003083168800C0
:1001A000410EF700F030F70577084004F80083129D
:1001B00000348316410EF039F7000F308312080522
:1001C00077048800000008140330F700F70BE628D6
:1001D000081000348810B22078088316C000C01FB1
:1001E000F3288312EB283E18F82883128810831610
:1001F0003E1CFD2883128814831600008312081108
:100200000000081083163F0EC0000F30C0054008E4
:10021000C1008312D92083163F080F39C000C100E6
:100220008312D920003483163B0B17291A2940303A
:10023000BC001B29BC0101303A02BC073C088038D5
:10024000BD00BE013D08BF008312EA200034BA3071
:1002500084008313000803193A290630F800F701D7
:10026000F70B3029F80B2F297B30F700F70B3629D5
:10027000800B2D290034831639080C3A8312031998
:100280004829063A03195429023A03195C296329BB
:100290008316BE010130BF008312EA2002308316AC
:1002A000BA00831227216B2901308316BA0002306D
:1002B000BB00831213216B298316BE011030BF00CF
:1002C0008312EA206B2901308316BE003908BF0073
:1002D0008312EA206B2900348E30F7008316390828
:1002E000F8003808F900FA01B91F7B29F809F90963
:1002F000F90A0319F80AF808031D88297908F80093
:10030000F9010830F702F808031D8829F70191293F
:100310000310F81B8F29F90DF80DF7038829B91F71
:10032000F813831200343C308100D208031DA02949
:100330005108083C031CA029D10A0319D20A212A1A
:10034000B008031DD129B108031DD129013083163E
:10035000BA000230BB008312132110308316B8009C
:100360002030B90083123B218316B80BB02901302D
:10037000BA000230BB00831213218316B80138087B
:10038000831252208316B80AF700B90083123B216A
:10039000103083163802031DBF2901308312B100CB
:1003A000D229B001ED126D08831687002030831228
:1003B000870654088316B900831253088316B800C1
:1003C00083126C217A08DE007908DD007808DC00F1
:1003D0007708DB0056088316B90083125508831688
:1003E000B80083126C217A08E2007908E1007808ED
:1003F000E0007708DF0058088316B9008312570819
:100400008316B80083126C217A08E6007908E500AB
:100410007808E4007708E3005A088316B9008312CD
:1004200059088316B80083126C217A08EA0079080B
:10043000E9007808E8007708E700D201D10101302F
:10044000EB000B118A110A122B288B108A110A1249
:100450002B288316061683126C10061A6C1483164A
:1004600086168312EC10861AEC1483160617831274
:100470006C11061B6C15831686178312EC11861BF4
:10048000EC15F7016C1A77146C087706013903191B
:10049000582A6C1C582A831606148312061C542AE8
:1004A000D30A0319D40A582A53080319D403D303CF
:1004B000F701EC1AF7146C087706023903196F2A52
:1004C000EC1C6F2A831686148312861C6B2AD50AAD
:1004D0000319D60A6F2A55080319D603D503F70165
:1004E0006C1B77156C08770604390319862A6C1D76
:1004F000862A831606158312061D822AD70A031937
:10050000D80A862A57080319D803D703F701EC1B2A
:10051000F7156C087706083903199D2AEC1D9D2AEA
:10052000831686158312861D992AD90A0319DA0AB9
:100530009D2A59080319DA03D9036C126C186C163A
:10054000EC12EC18EC166C136C196C17EC13EC191C
:10055000EC170B108A110A122B286E08FE3C031CA4
:10056000B32A7F30EE026E08F80000347508F801F7
:1005700074020318BE2A7408F700CA2AF70108306B
:10058000F600F40DF70D750877020318F700F80D63
:10059000F60BC12A003420306F1E3030F0006E0898
:1005A000F700EE1FDA2AF709F70A7708EE002D3078
:1005B000F000EF176E08F4006430F500B6227708FB
:1005C000EE0030307807F1006E08F4000A30F500D4
:1005D000B62230307707F30030307807F200700829
:1005E000F700EF1DF52AEF1F6F116F1A022BEF1F97
:1005F0001D2B6F191D2B7708F100EF181D2B7708A5
:10060000F2001D2B30307102031D1D2B7708F10005
:100610002030F000EF1D102B6F11EF14EF1FEF10C3
:1006200030307202031D1D2B7708F2002030F100DC
:10063000EF1D102BEF10EF1F6F106F1D2A2BA8015D
:100640008B1BA8178B1370088316B90083123B21EC
:10065000A81B8B17EF1C372BA8018B1BA8178B131C
:1006600071088316B90083123B21A81B8B176F1CDE
:10067000442BA8018B1BA8178B1372088316B90093
:1006800083123B21A81B8B17A8018B1BA8178B1368
:1006900073088316B90083123B21A81B8B17003403
:1006A0008030831C562B8316A50683128316AA015D
:1006B000AB012108A9002508A90620080319442C2C
:1006C000A800F700240803194D2CA8020319E92BF0
:1006D000031CA72B2508AE00AE172608AD0027087F
:1006E000AC00AB010310AE0CAD0CAC0CAB0CA80B0A
:1006F000712BA91F7E2B2A14612C2A1028102A1670
:10070000A33084008313762C2A12A91B912B281C5A
:100710009C2BAE0CAD0CAC0CAB0CF70A03195C2C8B
:100720009C2BAE1B9F2B0310AB0DAC0DAD0DAE0D76
:10073000F70303195C2C912B2A17092C2A13210883
:10074000A900A91FA52BAE17552CAE13552C2408B4
:10075000A800F7002008A8022108AE00AE17220862
:10076000AD002308AC00AB010310AE0CAD0CAC0C1B
:10077000AB0CA80BB32BA91FC02BAA14612CAA1079
:100780002810AA16A73084008313762CAA12A91B5E
:10079000D32B281CDE2BAE0CAD0CAC0CAB0CF70A2B
:1007A00003195C2CDE2BAE1BE12B0310AB0DAC0D43
:1007B000AD0DAE0DF70303195C2CD32BAA17092C32
:1007C000AA132508A900A91FE72BAE17552CAE13B5
:1007D000552C2508AE00AE172608AD002708AC0042
:1007E000A91FF62BAE132A15612C2A11AB01281074
:1007F000A33084008313762CA91B1F2C2108A90089
:10080000281C092CAE0CAD0CAC0CAB0CF70A031970
:100810005C2CAB1F1A2CAC0A031D1A2CAD0A031D4D
:100820001A2CAE0A031D1A2CAE0CAD0CAC0CF70A38
:1008300003195C2C2A1B9E2BAA1BE02B3E2C80301C
:10084000AE06AE1F272C612C2508A900342C2108E8
:10085000A900AE08031D342CAD08031D342CAC08D0
:10086000031D342CF701552CAE1B3E2C0310AB0D91
:10087000AC0DAD0DAE0DF70B342C5C2CA91F422C2A
:10088000AE17552CAE13552C2408F7002508AE00E2
:100890002608AD002708AC00552C2008F7002108D9
:1008A000AE002208AD002308AC002E08F8002D0889
:1008B000F9002C08FA00942CF701F801F901FA016B
:1008C000942CAB01AC09AD09AE09AB09AB0A031D11
:1008D0006F2CAC0A031D6F2CAD0A0319AE0A2A183F
:1008E0007D2BAA18BF2B2A19F52B242C0008AC0746
:1008F000031C802CAD0A031D802CAE0A031928149A
:1009000084030008AD07031C882CAE0A03192814C1
:1009100084030008801F803AAE07031828142A1A9F
:10092000842BAA1AC62BFC2B831200347308FC00FC
:1009300083162108FC06FC1FA22C03110310F31BD5
:100940000314D52C7308FC002008FD007208FD027A
:100950000319B02CFC1FD52C0308013A8300D52CB9
:100960002108FD007308FD020319BC2CFC1FD52CC7
:100970000308013A8300D52C2208FD007408FD020B
:100980000319C82CFC1FD52C0308013A8300D52C71
:100990002308FD007508FD020319D42CFC1FD52C7B
:1009A0000308013A8300D52C031083120034720827
:1009B0000319562D8316A4002008031DE12C831271
:1009C000562DA4070318EF2C7F30A4020318EA2C3D
:1009D0008312562D031DEE2C8312562DF52C8130DB
:1009E000A407031CF52C8312562D2408F700F801E8
:1009F000F901FA017308A800A8177408A700750880
:100A0000A6001830A400A501261C1E2D2308FA07F5
:100A1000031C102DF90A031D102DF80A0319A51740
:100A20002208F907031C172DF80A0319A517210836
:100A3000F400F4177408F8070318A517A50DF80CAF
:100A4000F90CFA0CA80CA70CA60C0310A40B032D90
:100A50000130F707031C2E2D8312562DF81B382D5D
:100A6000A80DFA0DF90DF80DF70B382D8312562D40
:100A7000A81F4B2DFA0A031D4B2DF90A031D4B2D00
:100A8000F80A031D4B2DF80CF90CFA0CF70A031D9C
:100A90004B2D8312562D7308A5002108A506A51F0E
:100AA000532DF8175B2DF8135B2D8312F701F80116
:100AB000F901FA018316831200348E30F7007208B0
:100AC000F7027308F9007408F800F917F70803191A
:100AD000742D0310F908031D702DF8080319742DE7
:100AE000F90CF80CF70B692DF31F7B2DF809F909A8
:080AF000F80A0319F90A0034A9
:10100000840183131F308305813083169900A63035
:10101000980090308312980083161F149F141F1598
:101020009F1107309C008312A901AA01AF01B001F2
:10103000B101B2010130B800B900BA01BB01BC0175
:10104000BD01BE01BF01C001C101C201C301C40194
:10105000C501C601C701C801C901CA01CB01CC0144
:10106000CD01CE01CF01D001D101D201D301D401F4
:10107000D501D601D701D801D901DA01EB016C10F5
:10108000EC106C11EC116C12EC126C13EC13FF30C1
:10109000ED006D126D088316870083120712A801F8
:1010A0008B1BA8178B1364308316BA008A11831226
:1010B00027218A15A81B8B1783168C1283120B13FA
:1010C0008B138B1B60280B1203178B1503138B16C6
:1010D0000030831688008312881008110810A801B8
:1010E0008B1BA8178B130F308316BA008A1183123B
:1010F00027218A15A81B8B170130EE006E08033CD0
:10110000031C9E28A8018B1BA8178B130330831682
:10111000C1008A118312D9208A15A81B8B17A80138
:101120008B1BA8178B1305308316BA008A11831204
:1011300027218A15A81B8B17EE0A7E28A8018B1B76
:10114000A8178B1302308316C1008A118312D9208D
:101150008A15A81B8B17EE016E08033C031CC728D9
:101160006E088A114A208A15EF00A8018B1BA81768
:101170008B138316BE0183126F088316BF008A117A
:101180008312EA208A15A81B8B17EE0AAC28831657
:10119000811785108312851083160511831205119E
:1011A0008316851183128511831685128312851289
:1011B000831689108312891083160911831209116D
:1011C0000030F80006389200F03083169200831247
:1011D000ED106D0883168700831287100C309D0078
:1011E0006D116D0883168700831207110C3097006C
:1011F00095019B0183160108C039073881008312CD
:10120000EE016E088A1167208A15EE0AF700A80120
:101210008B1BA8178B1377088316B9008A118312CA
:101220003B218A15A81B8B1722306E02031D012952
:101230003C308100A8018B1BA8178B130A30831642
:10124000BA008A11831227218A15A81B8B178316CF
:101250008C16C03083128B04A8018B1BA8178B132C
:1012600064308316BA008A11831227218A15A81BBD
:101270008B176D126D0883168700831207166B0B90
:101280004229EB012F0B332E2C08EE008A11AD22E0
:101290008A157808BA002D08EE008A11AD228A1549
:1012A0007808BB002E08EE008A11AD228A15780856
:1012B000BC00A8018B1BA8178B1301308316BA0042
:1012C0000230BB008A11831213218A15A81B8B17C9
:1012D0001030EE002030A8018B1BA8178B1383164B
:1012E000B9008A1183123B218A15A81B8B17EE0BBC
:1012F0006A29A8018B1BA8178B1301308316BA002B
:101300000230BB008A11831213218A15A81B8B1788
:101310003A08EE000730EF008A11CB228A15A801A7
:101320008B1BA8178B1320308316B9008A118312E8
:101330003B218A15A81B8B17A8018B1BA8178B13A1
:1013400020308316B9008A1183123B218A15A81B0D
:101350008B173B08EE000730EF008A11CB228A156D
:10136000A8018B1BA8178B1320308316B9008A1194
:1013700083123B218A15A81B8B17A8018B1BA8176A
:101380008B1320308316B9008A1183123B218A15F2
:10139000A81B8B173C08EE000730EF008A11CB2208
:1013A0008A15A8018B1BA8178B138316B90183120A
:1013B0003A088316B800B81BB9038A1183126C214E
:1013C0008A15A81B8B177708EE007808EF007908BC
:1013D000F0007A08F100A8018B1BA8178B13831665
:1013E000B90183123B088316B800B81BB9038A11F0
:1013F00083126C218A15A81B8B178314710883161E
:10140000A3007008A20083126F088316A100831244
:101410006E088316A0007A08A7007908A60078084D
:10142000A5007708A4008A11831250238A15770833
:10143000F2007808F3007908F4007A08F500A801B2
:101440008B1BA8178B138316B90183123C088316D4
:10145000B800B81BB9038A1183126C218A15A81B26
:101460008B17831475088316A3007408A2007308F1
:10147000A1007208A0007A08A7007908A6007808E1
:10148000A5007708A4008A11831250238A157A08D0
:10149000C0007908BF007808BE007708BD00A80129
:1014A0008B1BA8178B138316B90183123A08831676
:1014B000B800B81BB9038A1183126C218A15A81BC6
:1014C0008B177708EE007808EF007908F0007A08AB
:1014D000F100A8018B1BA8178B138316B901831287
:1014E0003B088316B800B81BB9038A1183126C211C
:1014F0008A15A81B8B17831071088316A300700828
:10150000A20083126F088316A10083126E0883164F
:10151000A0007A08A7007908A6007808A500770837
:10152000A4008A11831250238A157708F2007808E4
:10153000F3007908F4007A08F500A8018B1BA817BE
:101540008B138316B90183123C088316B800B81BAD
:10155000B9038A1183126C218A15A81B8B1783107B
:1015600075088316A3007408A2007308A10072080E
:10157000A0007A08A7007908A6007808A5007708D7
:10158000A4008A11831250238A157A08C4007908AE
:10159000C3007808C2007708C100A8018B1BA817F8
:1015A0008B138316B90183123A088316B800B81B4F
:1015B000B9038A1183126C218A15A81B8B1777082F
:1015C000EE007808EF007908F0007A08F100A80131
:1015D0008B1BA8178B138316B90183123B08831644
:1015E000B800B81BB9038A1183126C218A15A81B95
:1015F0008B17831071088316A3007008A200831252
:101600006F088316A10083126E088316A0007A0863
:10161000A7007908A6007808A5007708A4008A1119
:10162000831250238A157708F2007808F3007908AE
:10163000F4007A08F500A8018B1BA8178B138316FA
:10164000B90183123C088316B800B81BB9038A118C
:1016500083126C218A15A81B8B17831475088316B7
:10166000A3007408A2007308A1007208A0007A0801
:10167000A7007908A6007808A5007708A4008A11B9
:10168000831250238A157A08C8007908C7007808A1
:10169000C6007708C500A8018B1BA8178B138316FB
:1016A000B90183123A088316B800B81BB9038A112E
:1016B00083126C218A15A81B8B177708EE00780817
:1016C000EF007908F0007A08F100A8018B1BA81739
:1016D0008B138316B90183123B088316B800B81B1D
:1016E000B9038A1183126C218A15A81B8B178314E6
:1016F00071088316A3007008A20083126F08831676
:10170000A10083126E088316A0007A08A70079084A
:10171000A6007808A5007708A4008A118312502338
:101720008A157708F2007808F3007908F4007A083F
:10173000F500A8018B1BA8178B138316B901831220
:101740003C088316B800B81BB9038A1183126C21B8
:101750008A15A81B8B17831075088316A3007408BD
:10176000A2007308A1007208A0007A08A7007908F7
:10177000A6007808A5007708A4008A1183125023D8
:101780008A157A08CC007908CB007808CA00770857
:10179000C9003A087C3C031DF02B3B087C3C031D30
:1017A000F02B3C087C3C031DF02B83168510831224
:1017B0008510831605118312051183168511831276
:1017C0008511831685128312851296309B0083162D
:1017D0008910831289148316091183120911322E7C
:1017E0003A087B3C031D172C3B087B3C031D172C40
:1017F0003C087B3C031D172C831685108312851033
:101800008316051183120511831685118312851124
:10181000831685128312851296309B0083168910D9
:10182000831289108316091183120915322E83162B
:101830008910831289108316091183120911290B4B
:101840002A2D4C08F5004B08F4004A08F30049081B
:10185000F2008316A301A201A101A0018A11831243
:1018600096248A15031C3D2C83168510831285143B
:101870008316051183120511452C83160511831259
:10188000051583168510831285104908F7004A084C
:10189000F8004B08F9004C08FA00F8134908EE006C
:1018A0007808EF004B08F0004C08F100F501F40156
:1018B0007E30F3008530F20071088316A3007008B3
:1018C000A20083126F088316A10083126E0883168C
:1018D000A0008A11831296248A15031C752CCC0152
:1018E000CB017E30CA008530C9004908F7004A089C
:1018F000F8004B08F9004C08FA00F8134908EE000C
:101900007808EF004B08F0004C08F100F500700873
:10191000F4006F08F3006E08F2008316A301A20121
:10192000A1018030A0008A118312D7248A157A0879
:10193000F5007908F4007808F3007708F2008A11BE
:101940005D258A157808F20095004408F5004308E3
:10195000F4004208F3004108F2008316A301A2013B
:10196000A101A0018A11831296248A15031CC12C9F
:1019700083168512831285168316851183128511AD
:10198000C92C83168511831285158316851283123F
:1019900085124108F7004208F8004308F90044089E
:1019A000FA00F8134108EE007808EF004308F00051
:1019B0004408F100F501F4017E30F3008530F200B7
:1019C00071088316A3007008A20083126F088316A3
:1019D000A10083126E088316A0008A118312962438
:1019E0008A15031CF92CC401C3017E30C200853066
:1019F000C1004108F7004208F8004308F900440814
:101A0000FA00F8134108EE007808EF004308F000F0
:101A10004408F100F5007008F4006F08F3006E0848
:101A2000F2008316A301A201A1018030A0008A1157
:101A30008312D7248A157A08F5007908F40078080B
:101A4000F3007708F2008A115D258A157808F20004
:101A50009B00322E4808F5004708F4004608F300C2
:101A60004508F2008316A301A201A101A0018A1179
:101A7000831296248A15031C462D83168510831223
:101A8000851483160511831205114E2D8316051139
:101A90008312051583168510831285104508F700FB
:101AA0004608F8004708F9004808FA00F813450806
:101AB000EE007808EF004708F0004808F100F50153
:101AC000F4017E30F3008530F20071088316A30024
:101AD0007008A20083126F088316A10083126E089B
:101AE0008316A0008A11831296248A15031C7E2D6A
:101AF000C801C7017E30C6008530C5004508F70023
:101B00004608F8004708F9004808FA00F8134508A5
:101B1000EE007808EF004708F0004808F100F500F3
:101B20007008F4006F08F3006E08F2008316A3013A
:101B3000A201A1018030A0008A118312D7248A1546
:101B40007A08F5007908F4007808F3007708F200C5
:101B50008A115D258A157808F20095004008F50085
:101B60003F08F4003E08F3003D08F2008316A3018D
:101B7000A201A101A0018A11831296248A15031CD7
:101B8000CA2D83168512831285168316851183123A
:101B90008511D22D83168511831285158316851222
:101BA000831285123D08F7003E08F8003F08F9004F
:101BB0004008FA00F8133D08EE007808EF003F08EF
:101BC000F0004008F100F501F4017E30F3008530AB
:101BD000F20071088316A3007008A20083126F0838
:101BE0008316A10083126E088316A0008A11831247
:101BF00096248A15031C022EC001BF017E30BE0050
:101C00008530BD003D08F7003E08F8003F08F900A8
:101C10004008FA00F8133D08EE007808EF003F088E
:101C2000F0004008F100F5007008F4006F08F300C0
:101C30006E08F2008316A301A201A1018030A0006A
:101C40008A118312D7248A157A08F5007908F400DE
:101C50007808F3007708F2008A115D258A15780864
:0A1C6000F2009B00AF013F29630072
:02400E00323F3F
:00000001FF
;PIC16F877A
